:020000040000fa
:080000000002040000000000f2
:020000040000fa
:10040000afd42100007f240000018800000000001c
:100410000c000700c061220001002000110007004d
:10042000000020000000e000020032000000020096
:100430000000000066170200000000000040da0023
:100440000000fe004440a900002120000000e00060
:100450000300320000002000a00188004440a800f2
:100460000000060091018800800078000000eb0089
:1004700015003700e280400032a0b4009101ba00bc
:10048000e280400032a0b4009102ba00e280400055
:1004900032a0b4000002eb00472bde00f507b200eb
:1004a000602ce10004003a000059eb008301e900f0
:1004b000fdff3e00040037006128e100010032002a
:1004c0000082eb00040007001101ba000200e00006
:1004d000e8ff3a00000006003159ba008301e90044
:1004e0000c0032002159ba008301e90008003200f3
:1004f0000400e00003003a00e280400032a0b400b3
:10050000f5ff370011d9ba008301e900faff3a007c
:100510008100e800e180400032a0b4000000060045
:10052000d4130400000000000014040000000000c8
:10053000c214040000000000721504000000000056
:100540001e0d040000000000e81f04000000000071
:10055000ba1f0400000000001c220400000000007c
:1005600084220400000000006a180400000000005b
:10057000441a0400000000004c27040000000000a2
:1005800002240400000000003e24040000000000db
:100590008001eb000200370061f079008301e80080
:1005a000828f5100fcff3a00000006000003780033
:1005b000800178000002eb000100370080597800cc
:1005c00084025100820f52000900320064c078009a
:1005d0000402e8000004e000f8ff3a00830078001d
:1005e0008058eb0005804100808f5000fcff3a00ee
:1005f00006007800000006008001eb0002003700d2
:10060000817178008301e800828f5100fcff3a007d
:100610000000060080007800010037000000e800bc
:100620001004e000fdff3a00010050000000060049
:10063000889fbe008a9fbe008c1f7800560107006d
:100640005d01330003866c006450e1002400320039
:100650006420e100270032006150e10022003200f6
:100660006120e100210032008b854200eb07b100e0
:100670000134b800003ab8000804420089844a00f6
:10068000013ab8000030b8008880400009014a00f3
:10069000040033000000400081804800020149004e
:1006a0008b05e900c909dd008301700001003200fb
:1006b00013002000c814de004814dd004709de00e6
:1006c0001200b200c808de00088470004a0107006a
:1006d00001f0a1000cf0a70001f0a0003f013700dd
:1006e0006120e100410132000801be000200be00ad
:1006f000f7ff37006150e100fcff3a003b01370093
:1007000003f0a200889fbe008a9fbe008c1f780065
:1007100021010700280133006450e1004f0032003e
:100720006420e1005200320003826c0007003b00ad
:100730000905d0000306d000820f54000c065d00ae
:1007400002003900020032008901780003067800b7
:100750008582550004003d000003fd008103fd007b
:100760008502ea008b854200840f720002003b0084
:1007700060001000e08018006011b8000005eb0078
:100780007a28e1000a00390006007800c75ddd0024
:10079000f707b200878075002d0037008281710055
:1007a0000a017800610560008180d1000080d300db
:1007b0008502e900f9ff3b000604400087844800f9
:1007c00002003b0060041400e0841c000988a300c0
:1007d000070032008a81710082817100610164002a
:1007e0008904d1000884d3008b05e8001700370086
:1007f0000978a30013003a000b00e0001300340056
:100800008b05e9000804440089844c000a44740004
:100810000978a3000d003a000b00e0000700340047
:100820008b05e9000804440089844c0001003a006b
:100830000b0020000978a300f7ff32000001eb0055
:1008400002003700828171000a017800ea00070087
:100850000cf0a70001f0a000e00037006420e100e8
:1008600002003a00838f6c00e00033000801be00f4
:100870000200be00d90037000001be0004010700dd
:100880000470a70003f0a10003f8a30013003a00ce
:100890006509b10010003200090035006928e10047
:1008a00002003500010028000000050000004000a3
:1008b000818048008502e900fcff3a000000060044
:1008c000f88f4200050035008100d1000080d30080
:1008d0008502e800fcff3a00000006008000eb0003
:1008e000000005000001be00e90007000470a70039
:1008f00003f0a1006509b100160032000d003500bb
:100900006828e10006003500f0ff2f00f1ff270006
:100910000300e00013003b00010028000000050078
:1009200000004000818048008502e900fcff3a0099
:1009300008003700f88f420002003c008000eb0006
:10094000000005008100d1000080d3008502e8008e
:10095000fcff3a000300e00002003b0060001000d2
:10096000e080180000000600889fbe008a9fbe003d
:10097000010578000100e0000400350008003c009b
:100980000000e00020003200050037006000100089
:10099000e080180002003b0001f02c001a00370034
:1009a0000004be006011b8006b0920000982cf006e
:1009b000020039000882cf000441b00069425200b1
:1009c0000e00320008003b0082817100610164006a
:1009d0008904d1000884d3008b05e8000442e800b4
:1009e000f9ff3a00050037000804440089844c00f0
:1009f0008b05e9000442e900fbff3a007e00070096
:100a00000af0a70001f0a0004f05be004f04be0091
:100a100000000600839f68000100e00002003d0026
:100a200060001000e08018000300e00002003d00bc
:100a300060011100e0811900470007004f00e0004d
:100a400002003b0060001000e0801800000006007b
:100a5000889fbe008a9fbe008c1f78004e00070052
:100a60005500330003866c006450e1002e00320014
:100a70006420e100330032006150e1002f003200b9
:100a80006120e1003100320085855500eb07b000a0
:100a90000900200008042000050037000804440075
:100aa00089844c000a0031000603430087834b0011
:100ab0000001530081815b00f8ff33000203be0098
:100ac0000800a0000804440089844c00f6ff3900a7
:100ad000c639dd00830173000100320013002000dd
:100ae0008904d1000884d3000998a30005003200ce
:100af0000800a7000300a0008904d1000884d300e7
:100b00008b05e8008904d1000884d3000001eb00c4
:100b10000281d2003800070001f0a1000cf0a7000c
:100b200001f0a0002d0037006420e1002f0032000a
:100b30000801be000200be00f7ff37006120e1009f
:100b40002a0032006000b800f3ff370000002000e8
:100b500001f82700f0ff37006022b80006022000ed
:100b60000000d0008180d2000482d2008582d200b1
:100b70000000a0000202520083825a0003003100ec
:100b80000202420083824a000000a1000603e9003d
:100b9000f3ff3a00000006000004be003c0007001e
:100ba0000003be000405be000200be0038000700be
:100bb000844f7500000006000200be006450e10092
:100bc000050036006420e100020036000968a30039
:100bd00001003a000800be000160a0004f06780046
:100be0004f05be004f04be0000000600f0ff2f00be
:100bf000f1ff2700f9ff37008100200061805500d8
:100c00000b003d000b00200061fe2f000100e10001
:100c10001d00340082817100610164008904d100eb
:100c20000884d3000000e800faff3a0071002000b9
:100c300061006400030070000200600009003200df
:100c400061044400e0844c000988a50005003200de
:100c50008b05e8006808e10002003a008904d10031
:100c60000884d300f20f20000258e10005003d0087
:100c7000c75ddd00f907b2008980750008007800c3
:100c8000000006000bf827008b007800000005002c
:100c9000c70ade00f107b200f50fb200080032000b
:100ca000e1cf4200020032000170a00024000500e4
:100cb000810f7000010032000408050044000500a7
:100cc000810f700002003a00140005008502e9005f
:100cd0000000400081c04800fcff3b000170a00004
:040ce00024000500e7
:020000040000fa
:0200000401f009
:04000c00f8ff0000f9
:020000040000fa
:0200000401f009
:040010007fff00006e
:020000040000fa
:0200000401f009
:040014007fff00006a
:020000040000fa
:100008009e2900009e2900009e2900009e290000cc
:100018009e2900009e2900009e2900009e290000bc
:10002800e01600009e2900009e29000054250000cb
:100038009e2900009e2900009e290000d428000067
:100048009e2900009e2900009e2900000c1e000029
:10005800601e0000962900009e2900009e290000cd
:100068009e2900009e2900009e2900009e2900006c
:100078009e2900009e2900009e2900009e2900005c
:100088009e2900009e2900009e2900009e2900004c
:100098009e2900009e2900009e2900009e2900003c
:1000a8009e2900009e2900009e2900009e2900002c
:1000b8009e2900009e2900009e2900009e2900001c
:1000c8009e2900009e2900009e2900009e2900000c
:1000d8009e2900009e2900009e2900009e290000fc
:1000e8009e2900009e2900009e2900009e290000ec
:1000f8009e2900009e2900009e2900009e290000dc
:100108009e2900009e2900009e2900009e290000cb
:100118009e2900009e2900009e2900009e290000bb
:100128009e2900009e2900009e2900009e290000ab
:100138009e2900009e2900009e2900009e2900009b
:100148009e2900009e2900009e2900009e2900008b
:100158009e2900009e2900009e2900009e2900007b
:100168009e2900009e2900009e2900009e2900006b
:100178009e2900009e2900009e2900009e2900005b
:100188009e2900009e2900009e2900009e2900004b
:100198009e2900009e2900009e2900009e2900003b
:1001a8009e2900009e2900009e2900009e2900002b
:1001b8009e2900009e2900009e2900009e2900001b
:1001c8009e2900009e2900009e2900009e2900000b
:1001d8009e2900009e2900009e2900009e290000fb
:1001e8009e2900009e2900009e2900009e290000eb
:0801f8009e2900009e29000071
:020000040000fa
:100208009e2900009e2900009e2900009e290000ca
:100218009e2900009e2900009e2900009e290000ba
:10022800e01600009e2900009e29000054250000c9
:100238009e2900009e2900009e290000d428000065
:100248009e2900009e2900009e2900000c1e000027
:10025800601e0000962900009e2900009e290000cb
:100268009e2900009e2900009e2900009e2900006a
:100278009e2900009e2900009e2900009e2900005a
:100288009e2900009e2900009e2900009e2900004a
:100298009e2900009e2900009e2900009e2900003a
:1002a8009e2900009e2900009e2900009e2900002a
:1002b8009e2900009e2900009e2900009e2900001a
:1002c8009e2900009e2900009e2900009e2900000a
:1002d8009e2900009e2900009e2900009e290000fa
:1002e8009e2900009e2900009e2900009e290000ea
:1002f8009e2900009e2900009e2900009e290000da
:100308009e2900009e2900009e2900009e290000c9
:100318009e2900009e2900009e2900009e290000b9
:100328009e2900009e2900009e2900009e290000a9
:100338009e2900009e2900009e2900009e29000099
:100348009e2900009e2900009e2900009e29000089
:100358009e2900009e2900009e2900009e29000079
:100368009e2900009e2900009e2900009e29000069
:100378009e2900009e2900009e2900009e29000059
:100388009e2900009e2900009e2900009e29000049
:100398009e2900009e2900009e2900009e29000039
:1003a8009e2900009e2900009e2900009e29000029
:1003b8009e2900009e2900009e2900009e29000019
:1003c8009e2900009e2900009e2900009e29000009
:1003d8009e2900009e2900009e2900009e290000f9
:1003e8009e2900009e2900009e2900009e290000e9
:0803f8009e2900009e2900006f
:020000040000fa
:100ce400546500006d7000006572000061740000be
:100cf40075720000613a000020200000200000000e
:100d04002e000000546500006e7300006975000039
:100d14006e6500003a200000202000002020000022
:100d240020200000000d00000a2d00002d2d0000e1
:100d3400204d0000656e0000697500002050000021
:100d4400726900006e63000069700000616c00004d
:100d5400202d00002d2d00000d0a00006d20000044
:100d64002d200000496e000074650000726f0000c1
:100d74006761000072650000206d00006f64000070
:100d840020640000652000006c75000063720000a0
:100d9400750d00000a630000202d000020430000b0
:100da4006f6d000075740000617200006520000022
:100db4006d6f00006420000061750000746f000016
:100dc4006d610000742f00006d6100006e750000fd
:100dd400616c00000d0a0000742000002d2000004a
:100de400496e000074650000726f000067610000c6
:100df4007265000020740000656d000070650000dd
:100e04007261000074750000726100000d0a000038
:100e1400682000002d200000416600006973000076
:100e24006172000065200000616a000075740000b2
:100e34006f7200000d0a00002d2d00002d2d000002
:100e44002d2d00002d2d00002d2d00002d2d000036
:100e54002d2d00002d2d00002d2d00002d2d000026
:100e64002d2d00002d2d00000d0a0000005500005e
:100e74006c740000696d000061200000636f000065
:100e84006d6100006e640000613a000020200000e3
:100e940020200000004d00006f640000206c000062
:100ea40075630000727500003a20000020200000e5
:100eb400200000002020000061750000746f000015
:100ec400006d0000616e0000756100006c000000a0
:100ed4004d6f00006420000063750000726500001f
:100ee4006e7400003a200000006100007574000078
:100ef4006f0d00000a0000006d6100006e750000b7
:100f0400616c00000d0a0000004d00006f640000d9
:100f1400206300006f6d00007574000061740000b0
:100f24002e0d00000a0000000d0a0000004300001e
:100f34006f6d0000616e000064610000206e0000af
:100f440065630000756e00006f7300006375000038
:100f5400746100002e0d00000a000000746100009e
:100f6400736b00005f730000746100007265000021
:100f74005f61000070700000007400006173000085
:100f84006b5f000074650000726d00006f0000006c
:100f940074610000736b00005f6100006463000013
:100fa400007600005365000072690000616c000067
:100fb4004d6500006e75000054610000736b000005
:100fc4000000000011110000222200003333000051
:100fd4004444000055550000666600007777000021
:100fe4008888000099990000aaaa0000bbbb0000f1
:100ff400cccc0000dddd0000eeee0000cecd000024
:10100400acab000002020000030300000404000073
:101014000505000006060000070700000808000098
:101024000a09000010100000101100001212000044
:10103400514300006f6e0000734200003100000055
:1010440051500000726f0000644200003200000042
:1010540051500000726f0000644200003300000031
:10106400514300006f6e0000734200003400000022
:1010740051500000726f000064420000350000000f
:10108400514300006f6e0000734200003600000000
:1010940096000000c8000000fa0000002c010000c7
:1010a4005e01000090010000c2010000f401000094
:1010b40042540000657300007431000000420000d7
:1010c400546500007374000032000000434f0000b8
:1010d4004d54000078000000434f00004d520000c2
:1010e40078000000496e0000744d00006174000037
:1010f40068000000494400004c4500000000000066
:020000040000fa
:101104000000fa00fc3cec000080fa00000006003d
:101114000000fa00889fbe008a1f7800000578004e
:1011240081047800e38f500001003600390020006c
:10113400500e070040e880008a0f500002003a0079
:101144000005eb00020037000a00e00002003a004c
:1011540048e88000010037000a047800b8089000cd
:10116400818f540025003200030036000a00e0009d
:1011740003003a00040037000a00e00002003a00cd
:101184001a002000010037000005eb00390c98001c
:1011940064801400600498006a09b900e0c7210063
:1011a40002004000d8009000808f50000e003a00ea
:1011b4008884e80009007800190f0700b808900037
:1011c40000e88000808f50000100360001e88800ac
:1011d400380990006a11b900e0c7210002004000fc
:1011e40089007800e80e0700e10f550003003a007b
:1011f400b82702000000000000000000220e0700d3
:101204004f0578004f04be000080fa00000006007d
:101214000000fa00889fbe008a1f780080047800ce
:10122400140e070040e88000890f500002003a00c5
:101234008004eb00020037000900e00002003a00dd
:1012440048e8800001003700090478000885e800b8
:101254000a007800f20e0700280890000000e00061
:10126400020032006c004400ed0e07008a00780092
:1012740020c52100c40e0700030e07000900e0008a
:1012840003003a00b827020000000000000000003c
:101294004f0578004f04be000080fa0000000600ed
:1012a4000000fa0000017800d000900020c5210061
:1012b400808f500007003a00a2089000c0c52100aa
:1012c400808f500003003200100020000100e00075
:1012d400010032000000eb000080fa00000006006c
:1012e4000000fa00889fbe00000478000000e000bf
:1012f4001f00320040e88000800f54001c003200c0
:10130400dc0d070008007800e5ff0700e10f50003e
:1013140016003a008884e80009007800c00e07002f
:10132400b808900000e88000808f5000010036006b
:1013340001e88800380990006a11b900e0c721006b
:1013440002004000890078008f0e070040e880000a
:10135400b808900030089000808f500003003900d6
:10136400b82702000000000000000000c60d0700be
:101374004f04be000080fa00000006000000fa00de
:10138400889fbe008a1f780000047800c4ff07000d
:101394000005eb00e10f50001d003a00e1e780007a
:1013a4000100e00016003a0040e8800001057800e2
:1013b400b808900030089000808f50000100390078
:1013c4001a0020008884e80009007800940e0700c1
:1013d400b808900000e88000808f500001003600bb
:1013e40001e88800380990006a11b900e0c72100bb
:1013f4000200400089007800630e070004003700f3
:10140400ec004400c0c521005f0e07000005eb009e
:101414000a0078004f0578004f04be000080fa00ef
:10142400000006000000fa0042a0a800fe3cef0005
:101434008d0d07000080fa00000006000000fa008d
:10144400881f7800fc1ce2002b003a00043dec00ed
:10145400041de20005003a0040e3800031e380000f
:1014640041e3880030e38800f63cec0040e3800070
:101474001000e00022003a002a0037009800900093
:1014840020e88000808f500026003e000880e8009d
:10149400630e0700280890000000e00002003200fc
:1014a4006c0044005e0e0700b808900000e880005d
:1014b400808f50000100360001e888008880e80031
:1014c400380990006a11b900e0c721000200400009
:1014d4002d0e070040e380001000e00011003200f0
:1014e40040e3800030009000300490000800e000e9
:1014f400e2ff3a000b003700fa3cec000900370029
:1015040040e3800030009000300490000800e000c8
:10151400040032009800900020e88000808f500082
:10152400daff36004f0478000080fa00000006005d
:101534000000fa00889fbe004e0d0700fc3ced0041
:10154400e0e780000000e00032003a00061de200ff
:101554003000320080047800150037006c0044002d
:101564002f0e07000880e8002d0e0700b808900031
:1015740000e88000808f50000100360001e88800f8
:101584008880e800380990006a11b900e0c721009a
:1015940002004000fc0d0700b808900040e88000fd
:1015a40030089000808f500001003900190020009d
:1015b4005c1ce2000500320010e380003000900063
:1015c400000478000000e000e4ff3a00fa1ce200a6
:1015d40012003a000400370098ff0700fa3ced00bf
:1015e400fa1ce200fcff3a00e18f540003003200d1
:1015f400c0e78000e10f500006003a00f83cef001d
:10160400b8270200000000000000000018002000bd
:10161400050037000004eb0003003700fa1ce20069
:10162400f1ff3200ecff3700170d070008007800c7
:101634004f04be000080fa00000006000000fa001b
:10164400889fbe00800478000000e000160032008d
:10165400abfe070028e8800008844400089dec00e5
:10166400ef0d070040e880001800980020e8800093
:10167400800f54000500310041e8800030e3800011
:101684008180e800ce0d07000400370041e88000a7
:1016940040e380008180e800c90d0700a4ff070033
:1016a4000000e00003003a00b82702000000000038
:1016b400000000004f04be000080fa000000060095
:1016c4000000fa00889fbe008004780001047800be
:1016d4008bfe0700990078000884400020e8800011
:1016e400808f500003003600888f500006003600bb
:1016f40002003700888f500005003e0020e880007b
:10170400800f540002003e000000eb00010037008f
:1017140010002000880c78000000e0001000320067
:10172400089dec00be0d070040e8800018009800fa
:1017340020e88000800f54000500310041e880005b
:1017440030e380008180e8009d0d0700040037002d
:1017540041e8800040e380008180e800980d0700a4
:1017640073ff07000000e00003003a00b8270200fe
:1017740000000000000000004f04be000080fa00da
:10178400000006000000fa00881f7800b90c07006a
:1017940028e88000bc0c0700080078004f0478009b
:1017a4000080fa00000006000000fa0030e8800023
:1017b4000080fa00000006000000fa00fc1ce200b1
:1017c4001500320010002000c0e78800190037001f
:1017d400003ded001000370000e880006a00b90009
:1017e400e2c7210080004100110090001001900028
:1017f4009200980064804000800f510002003a007b
:1018040012019000920098001100900030009000a6
:1018140040e888000700370000e880006a00b9004b
:10182400e2c72100620078000000e000e8ff320017
:10183400e9ff37000080fa00000006000000fa000b
:10184400881f78000104780041e88000ec804000a3
:101854005b0d0700089dec00710d0700e10f4400cb
:1018640005003a0041e880008180e80020c521009d
:10187400450d07001000370020e8800000004400f8
:1018840041e880009000980021e88000810f50001a
:101894000500310041e8800030e380008180e800e9
:1018a400470d07000400370041e8800040e3800052
:1018b4008180e800420d07004f0478000080fa00a0
:1018c400000006000000fa00881f780080007800fd
:1018d400100078000000e00002003a0000047800e4
:1018e4000200370031009000300490006c00440086
:1018f4004b0d0700fc1ce2000e003a000880e800d3
:10190400470d0700b808900000e88000808f500061
:101914000100360001e888008880e800380990005a
:101924006a11b900e0c7210002004000160d07004b
:1019340003003700ec004400c0c52100120d07006d
:101944003808900041e88000b10890000001eb00e5
:10195400810f5000010039001200200002007800bd
:101964004f0478000080fa00000006000000fa002e
:10197400b1e780000108780021e880001100980098
:101984000080fa00000006000000fa00889fbe00f4
:101994008a1f78000004780001057800350c0700e0
:1019a4001a0178008004eb00e10f410014003200ba
:1019b400b0e78000980f10000400320021e8800096
:1019c40018009000810f50000c0036009800900021
:1019d40001007800041db500800f51000700360097
:1019e40001007800041db500000d510008007800c6
:1019f400deff07008004eb0001003700190020001f
:101a0400210c0700090078004f0578004f04be0040
:101a14000080fa00000006000000fa001000200018
:101a2400c0e788000080fa00000006000000fa0009
:101a34000080fa00000006000000fa00b827020047
:101a4400000000000000000084050700fbff3700d1
:101a54000000fa00889fbe008a1f78008004780086
:101a6400020478007a00400042002000cefa070009
:101a74000040eb00d05c9800e30f540003003600f4
:101a8400380020001a00200001003700640514000b
:101a9400b80c98000980e800b60c07006c84440078
:101aa40008007800b30c0700c90498000a0c7800f9
:101ab400990c98004f0578004f04be000080fa008e
:101ac400000006000000fa00889fbe00e8c721005d
:101ad40069ca2100080078009d0c07006a044400cc
:101ae400888f5400fbff3a0040c72100980c070080
:101af400a0c62100960c0700c0c52100940c070065
:101b040020c52100920c070040c7210040e3880053
:101b1400a0c6210030e388004f04be000080fa0014
:101b2400000006000000fa00889fbe008a1f7800ab
:101b3400000578000104780000022000b30d0700be
:101b4400800478000000e000100032000800e0008b
:101b540003003a000a004500ac0d070000047800b9
:101b6400c80c98000800e00004003a00090078005e
:101b7400bf0d070088047800040037000a014500ff
:101b8400510a2000080078009afa0700090078003a
:101b94004f0578004f04be000080fa0000000600e4
:101ba4000600fa00889fbe008a9fbe008c9fbe007c
:101bb400000f7800010678000205780013079800ea
:101bc4008406780025079800860078008705780049
:101bd40002007800d3ff0700800478000080eb0047
:101be4000900e00041003200490c90000a00450061
:101bf400000044000080e900f00c98000a0278001c
:101c04008b0178000d0178008c00780009007800c1
:101c14008fff07001e0190009e00780008007800e6
:101c24004b0b0700800c7800920b0700063dec007c
:101c340030e88000e10f500003003a0049e88800d2
:101c4400a0ff070007003700fe1ce20005003a0071
:101c540040e8800030089000808f56000100390071
:101c640049e88800b908900010e88000808f50008f
:101c74000100360011e88800f43cec00b90890003b
:101c840000e88000808f50000100360001e88800e1
:101c94008980e800390990006a11b900e0c7210081
:101ca40002004000380c0700770b07002e0090005c
:101cb4000000e0000100320009087800fe1ce20088
:101cc4000900320040e88000300890008d0f500079
:101cd40005003100b82702000000000000000000e9
:101ce4001000200001003700100020004f06be0045
:101cf4004f05be004f04be000080fa00000006003d
:101d04000000fa008003eb000003eb008602780079
:101d1400060278008601780092062000c187280018
:101d2400e0d120009eff0700e10f500004003a00bc
:101d340042a0a800f0e78800043def001a0b07005a
:101d44000080fa00000006000000fa00889fbe0030
:101d54008a9fbe0080047800010578000000e0003e
:101d64002400320060022000280d070000047800df
:101d74000000e0001f0032000ac8b90080057800a6
:101d84000000e800210d070000017800000c780035
:101d94000000e000130032000b0040001004980023
:101da4000000eb00600c9800220498000900e90090
:101db40000d0b9000000410030049800790c98006c
:101dc4000a1498000080eb00101498002014980066
:101dd40068004400de0b070072004400dc0b0700bf
:101de4000500370008007800210d07000004eb000f
:101df400010037000004eb00080078004f05be0026
:101e04004f04be000080fa00000006000000fa0043
:101e1400889fbe0000047800160b0700e8089000b5
:101e24008004eb0078089000808f500001003a0095
:101e340019002000140b0700090078004f04be00ad
:101e44000080fa00000006000000fa00881f7800f5
:101e540000047800070b0700680c90000a0b0700c9
:101e6400080078004f0478000080fa0000000600a3
:101e74000000fa00600890000080fa0000000600ec
:101e84000000fa00881f7800000478001000780031
:101e9400f70c070008007800f50c07004f047800e1
:101ea4000080fa00000006000000fa00881f780095
:101eb4000004780002007800081190000200e0009d
:101ec400190032000000e0000c003a0028009000e5
:101ed400aef907002800900088109000010040002f
:101ee4002004980098009000810f50000e003900e3
:101ef40018007800200498000b0037003800900088
:101f0400a2f90700380090008810900001005000ea
:101f140030049800980f500003003100180090001e
:101f24000100500030049800680890000000e800a8
:101f3400600c98004f0478000080fa00000006004e
:101f44000000fa00889fbe000004780001027800b7
:101f54008204780003017800e00890007008900083
:101f64008001eb00808f500016003100840078005f
:101f740008007800ccff070028109000e10f400013
:101f84000b003a00180890000000e0000c0032003a
:101f9400720044004bfe07000000e000080032001d
:101fa40010002000800c78008001780005003700c4
:101fb4000000e800201498001300200001003700fe
:101fc40013002000030078004f04be000080fa00d4
:101fd400000006000000fa0000017800810178008a
:101fe4001000e0000e0032003000900082109000db
:101ff400010040003001980092009000810f5000d1
:102004000200390012007800300198006600410097
:102014009000780002119000030078005bf907003b
:102024000080fa00000006000000fa00889fbe004d
:102034000004780082047800600890000000e0004a
:102044001700320008007800e2ff070068089000db
:102054000000e900600c980018109000e10f4000a7
:102064000a003a00480090000000e0000b00320033
:102074006800440013fe07000000e000070032007f
:1020840010002000800c7800050037000000e800f4
:1020940010149800100020000100370010002000e8
:1020a4004f04be000080fa00000006000000fa00a1
:1020b400881f7800000478006e0a0700281090003a
:1020c4000000e00029003c000d00370018089000d3
:1020d4000000e0000a00320072004400f9fd07002d
:1020e4000000e000010032004bfe070028109000c1
:1020f4000000e900201498004240a900f3ff3c00ce
:102104000080eb00201498005f0a0700590a0700ba
:10211400181090000000e00018003c000d0037008b
:10212400480090000000e0000a003200680044000b
:10213400e4fd07000000e0000100320036fe070065
:10214400181090000000e900101498004240a90003
:10215400f3ff3c000080eb00101498004a0a0700cb
:102164004f0478000080fa00000006001808900070
:102174000000e000e2ff3200d7ff37004800900083
:102184000000e000f3ff3200e8ff37000600fa0029
:10219400889fbe008a9fbe008c1f78008004780050
:1021a4008105780022079800030678000005eb00fb
:1021b400300a0700690890000000e0001f003200a8
:1021c400390490008b0078000900780081ff070033
:1021d4000c00e0000b003a00690890000000e900e0
:1021e400e00c9800490090000000e000100032006c
:1021f40068804400b3fd0700e10f50000c003a0072
:1022040008003700b8049800190890000000e000a6
:102214000700320072804400aafd07000000e000bd
:1022240003003200b8270200000000000000000094
:10223400150a070010002000370037002e04900014
:102244000800e00003003a000f0a070008007800c5
:10225400310037000a00e00003003a000e00780065
:10226400c2fd07001a002000070a0700a4fb0700ac
:10227400000a070019109000e10f400002003a0024
:102284000000eb009014980029109000e10f40002a
:1022940002003a000000eb00a0149800fa090700bd
:1022a400e40047000e007800b7fd07000000e000de
:1022b40015003a00ef090700690c9000f2090700c5
:1022c4000800e0000c003a00ae0090007280440068
:1022d4005afd07000900780074ff070094fc07000a
:1022e4000000e000b2ff3a00b8270200000000003e
:1022f40000000000aeff3700090078006bff070004
:102304008bfc0700aaff37000900780067ff07006d
:1023140087fc07000000eb004f0678004f05be0065
:102324004f04be000080fa00000006000600fa0018
:10233400889fbe008a9fbe008c1f780080047800ae
:102344000106780022079800830578000005eb0059
:10235400c8090700e908900079089000808f5000b0
:10236400110031000b0178008c007800090078001e
:10237400cdfe0700190890000000e00007003200bd
:10238400728044004ffd0700e10f500003003a0043
:10239400b82702000000000000000000ba0907008e
:1023a40010002000360037002e0490000800e000e2
:1023b40003003a00b4090700080078003000370031
:1023c4000a00e00003003a000e00780067fd0700f1
:1023d4001a002000ac09070049fb0700a509070003
:1023e40019109000e10f400002003a000000eb00d9
:1023f4009014980029109000e10f400002003a0068
:102404000000eb00a01498009f090700e4004700b7
:102414000e0078005cfd07000000e00014003a00a4
:102424000900780079fe07000000e0000c0032008b
:10243400ae0090006880440000fd070009007800a9
:102444001aff07003afc07000000e000c0ff3a0052
:10245400b82702000000000000000000bcff3700a5
:102464000900780011ff070031fc0700b8ff3700ae
:10247400090078000dff07002dfc07000000eb00a9
:102484004f0678004f05be004f04be000080fa00de
:10249400000006000000fa00e00890000100ea00d5
:1024a400010070004f00de00610010000080fa009f
:1024b400000006000000fa00e00890000001eb00b4
:1024c40070089000808f500001003a001200200034
:1024d400020078000080fa00000006000000fa0004
:1024e400889fbe008a1f78000004780001057800e8
:1024f4008204780042a0a80044fe07000000e00027
:102504000b0032000900e00006003200e80044003d
:10251400090078002c04070042a0a900c0ff2f0086
:102524001a00370042a0a9000000eb001700370092
:1025340042a0a9000000000042a0a800e808900002
:10254400780890000001eb00808f50000d003100ee
:102554000001eb008a0078000800780052fe0700b2
:10256400180890000000e0000500320072004400ea
:1025740012050700b2ff2f000000e00001003a003e
:102584001200200042a0a900020078004f05780044
:102594004f04be000080fa00000006000000fa00ac
:1025a400881f7800000478008101780042a0a80008
:1025b400600890000000e0000b003a000200e00018
:1025c40006003200f200440002007800fe03070017
:1025d40042a0a900c0ff2f002700370042a0a90095
:1025e4000000eb002400370042a0a9000000000016
:1025f40042a0a800680890000000e00002003a0031
:10260400800078001a00370038009000881090008d
:10261400010040003004980098009000810f5000a1
:10262400020039001800780030049800680890000f
:102634000000e900600c98006600440090007800f7
:102644000811900003007800d0f7070048009000bc
:102654000000e0000500320068004400d7040700d1
:10266400b1ff2f000000e00001003a00110020003b
:1026740042a0a900010078004f0478000080fa000d
:10268400000006000000fa00889fbe0000047800e5
:102694008101780082047800e008900070089000be
:1026a400808f50000f0031000001eb0083007800a0
:1026b40008007800fcfd07000900e00009003a006a
:1026c400180890000000e000080032007200440086
:1026d400ba040700110020000000e00004003a00e2
:1026e4000200370089007800010037008000eb0009
:1026f400010078004f04be000080fa0000000600cc
:102704000000fa00889fbe00000478008101780070
:1027140082047800600890000000e0001e0032008f
:1027240038009000881090000100400030049800a8
:1027340098009000810f50000200390018007800c2
:1027440030049800680890000000e900600c9800cc
:10275400660044009000780008119000030078009f
:102764008af707001900e0000a003a0048009000c8
:102774000000e00007003200680044008f040700f6
:102784000000e0000300320010002000800c7800fc
:1027940001003700100020004f04be000080fa0042
:1027a400000006000200fa00000feb00a22c20003b
:1027b40012417800cbc2bf004300de00004171002b
:1027c400614061000080ea008180ea0061406000ad
:1027d4004300dd00b22c2000124178000234a10035
:1027e4000041710002007800cbe2b700810c2000a8
:1027f4000e007800b2fb0700ecff37001000fa006f
:10280400889fbe008a9fbe008c1f7800000feb00db
:102814006000b8001007980021079800660647007a
:10282400b7070700100798002107980020e98000e7
:102834008001eb00030178008e80e800bbfe0700f6
:1028440030e980008001eb00030178008300780008
:102854004efe0700e10f50000a003a00020020007b
:10286400a33f24001e009000ae0090006ff7070005
:1028740002002400c3592400a0f70700fdf7070055
:10288400d00e880010002000a20607002067280050
:10289400700607001e009000ae00900010f80700bc
:1028a4000001be008c007800020078009008070048
:1028b4000c007800670607002068280065060700fa
:1028c4001e049000ae0490000800be0004f8070047
:1028d400cf80de0023f807000001be000800be0020
:1028e40086f7070002002000031224004ff70700b8
:1028f400fbf707000001be008c007800020078009e
:102904007b0807000c007800520607001e049000a4
:10291400ae04900002002000832c24000800be00b6
:1029240042f707000005be00020020000312240045
:102934000800be003df70700e9f707006a00b90088
:10294400cf80de0007f807000001be000a00be00c9
:102954006af70700e2f707000001be008c00780068
:1029640002007800620807000c00780039060700ae
:10297400017d20000e00780051fb0700a8ff3700fe
:102984000c00fa00889fbe008a9fbe008c9fbe0088
:102994000e067800001eeb008d3821000818800018
:1029a40040e980008001eb00030178008300780097
:1029b400f6fd0700e10f500006003a000dc0b90013
:1029c400f2ff20000300200011f807000d00400072
:1029d400d00e88006140b900e2f7070032332300cb
:1029e4003305240011f7070002002f00f3572400d9
:1029f40016f807000005be00300020004506070059
:102a040040682800130607000a00be00b4f7070058
:102a14000001be00000478008c00780002007800f9
:102a2400330807000c0078000a0607002068280015
:102a340008060700cfc4de000800be00c9f707007f
:102a44000001be000a00be002cf7070002002000af
:102a540003122400f5f60700a1f707000001be00e9
:102a64008c00780002007800210807000c00780030
:102a7400f805070002002000832c24000a00be0091
:102a8400eaf607000004be0002002000031224003e
:102a94000a00be00e5f6070091f707006a00b900d6
:102aa400cf80de00aff707000001be000800be00c3
:102ab40012f707008af707000001be008c007800b7
:102ac400020078000a0807000c007800e1050700fe
:102ad400410620000e007800f9fa0700afff370026
:102ae4001400fa00889fbe008a9fbe008c9fbe001f
:102af4000000eb00200798006011b800320798002e
:102b0400430798005d692800000178008d00780073
:102b14009204070040002000fe050700907328007f
:102b2400cc0507006a06470020002000f9050700cd
:102b3400d0742800c70507003c1de20009003200dc
:102b4400c0752800c305070030e980008001eb0050
:102b5400030178008000eb00f4fd0700cb62a900bc
:102b64000800370030762800ba05070040e98000e5
:102b74008001eb00030178008000eb00ebfd07000f
:102b8400cb62a80020e980008001eb0003017800fb
:102b9400e60047007dfd07000001eb008e00780091
:102ba4000000eb00fc0307000000e0007f0032009f
:102bb4000e04e8001e4c78000040eb00104498001e
:102bc40040002000d305070090732800a1050700ea
:102bd400080078009f0507009e40780080c6b30077
:102be40080cf50006800320004003e006540500071
:102bf40080cf500069003a0014003700d0c6b300fb
:102c040080cf5000040032006740400080cf500065
:102c140062003a00180037000001eb00a17628009a
:102c24000000eb004d040700707728003c1de20013
:102c340001003a00e07728000001eb0080007800f2
:102c44000000eb004504070058003700e1e980006c
:102c54000100ea00010070004f00de006100100076
:102c6400e0e988000001eb00717828000000eb0027
:102c74003a0407004d0037003e009000ce0090005b
:102c840017f707000001be008c00780002007800ee
:102c9400970707000001eb008c0078000000eb00b0
:102ca4002e0407000001eb00216828000000eb005f
:102cb4002a0407003e049000ce0490000800be00e1
:102cc40007f70700cf80de0026f707000001be00eb
:102cd4000800be0089f60700020020000312240049
:102ce40052f60700fef607000001be008c007800d3
:102cf400020078007e0707000001eb008c007800da
:102d04000000eb00150407003e049000ce04900080
:102d140002002000832c24000800be0043f60700b4
:102d24000005be0002002000031224000800be00bb
:102d34003ef60700eaf607006a00b900cf80de001d
:102d440008f707000001be000a00be006bf607008a
:102d5400e3f607000001be008c0078000200780052
:102d6400630707000001eb008c0078000000eb0013
:102d7400fa0307000001eb00617928000000eb0072
:102d8400f6030700090037000001eb008d0078000e
:102d94000000eb00f1030700040037000001eb0022
:102da400917928000000eb00ec03070041062000a5
:102db4006400470042fa07005bff3700801f780079
:102dc400829fbe000000fa00cac2bf0061416000d9
:102dd4000281ea008381ea0061416100cac2bf0046
:102de4000004a10002407000cae2b7008400a900f8
:102df4000080fa004f01be004f007800004006003a
:102e04000000fa0090022000303a8800764040002a
:102e14004467b60000ceb3004467b6001200200039
:102e2400a109200080072000337420008049780025
:102e340081497800824978007105200060042000ef
:102e44002374200080497800814978008249780001
:102e540043c7bf000047b200f04f5000fcff3a00e8
:102e640042c7bf000058a300fdff32000080fa00f3
:102e7400000006000000fa00f0c0b300c061b60014
:102e8400c0cfb300c061b600c3e1a90000002800b0
:102e9400c221b600409c2000d00e8800a0862100ec
:102ea400200e88007127a900c941a800c8c1a80044
:102eb400c0c0b300c061b700ca01a900c1e1a80045
:102ec4000080fa00000006000000fa00881f780065
:102ed4002ca3ef0063080700c9ff07000b090700d4
:102ee400e4ff0700ef08070068c0a800c842a80074
:102ef400b5050700ca42a800c90507000a0507006e
:102f0400a20020000058220001002000c502070092
:102f14000004eb0048168800c8e2a80000002f0057
:102f2400501688008400a9009400a8008200a8001c
:102f34008003eb0008037800880278005400200026
:102f44008801780092062000017b2800403d210082
:102f540013fb07008003eb00080378008802780065
:102f6400440020008801780092062000f17b2800ac
:102f7400004021000afb07008003eb0008037800ef
:102f8400880278005400200088017800920620000e
:102f9400a17c2800204c210001fb07008003eb00ea
:102fa4000803780088027800640020008801780013
:102fb400220d2000317d280020572100f8fa070057
:102fc40088007800100020005ffb070050e98800ab
:102fd4000000e00004003200880178000801780055
:102fe4008000eb00d1fc07008000eb001000200003
:102ff40055fb070040e988000000e00004003200af
:103004008001eb00030178008000eb00c7fc07009f
:103014008000eb00100020004bfb070030e9880023
:103024000000e000040032008001eb00030178009e
:103034008000eb00bdfc07004100200010002000d0
:1030440041fb070020e988002dfb07000000eb008e
:103054004f0478000080fa00000006000000fa0027
:10306400de0107000080fa00000006000000fa00fc
:10307400210020005000200033fb0700c0e8880036
:103084008003eb000003eb0086027800340020008c
:103094008601780092062000a1852800a0862100e0
:1030a400bffa07008003eb000003eb0065d12100a9
:1030b4002400200086017800920620001186280052
:1030c40040a42100b6fa07000080fa0000000600c0
:1030d4000400fa00889fbe008a9fbe008c9fbe0039
:1030e4001c002000e20647000000eb0010079800d7
:1030f40080007800a00020000104dd00a1f9070091
:1031040080047800c0e880008001eb0008017800aa
:103114008e0078001dfc07000000e0000100320072
:103124005ce8880097f9070089005000810f54007b
:10313400010036005ce888006f004400808f500076
:10314400010036005ce888001e0090008000e80062
:1031540011079800e48f5000e6ff34000000eb00f4
:10316400100798008d05780018002000c0e8800042
:103174008001eb00030178008b0078006bfc0700f2
:10318400e10f50000100320058e88800b82702001f
:1031940000000000000000001e0090000000e80095
:1031a40010079800e40f5000f0ff34000000eb001b
:1031b40010079800800078001a002000a00020006a
:1031c4000104dd006ff9070080047800c0e8800086
:1031d4008001eb00080178008b00780053fc0700a5
:1031e4000000e000010032005ae8880065f9070099
:1031f40089005000810f5400010036005ae888000d
:103204006f004400808f5000010036005ae88800a7
:103214001e0090008000e80011079800e48f500021
:10322400e6ff3400143def00b0e880002cf80700fe
:10323400a1e8800050052000808f50000600320075
:103244000004780040012000fcf80700a0e880009a
:10325400880f5000fbff3a0040012000f7f80700f8
:103264000000eb00a0e88800100798001800200078
:1032740059052000c0e880008001eb0003017800bc
:103284008e007800c1fb0700e10f500001003200fe
:1032940058e88800c0e880008001eb000301780052
:1032a4008b00780021fc0700e10f50000100320080
:1032b40058e88800a0e88000890f500001003a0017
:1032c40058e88800b0e880005100200090f707001b
:1032d400a0e88000890f500001003a0058e88800f7
:1032e400b0e880002100200089f707001e0090004c
:1032f4000000e80010079800e40f5000ddff3400e0
:10330400a1e8800050052000808f500006003200a4
:103314000004780040012000c8f80700a0e88000fd
:10332400880f5000fbff3a0040012000c3f807005b
:103334000000eb00a0e888001007980018002000a7
:10334400c0e880008001eb00030178008e00780063
:103354008efb0700e10f50000100320058e888009e
:103364001e0090000000e80010079800e40f5000d1
:10337400f3ff3400b0e88000d9f70700a1e880002b
:1033840050052000808f50000600320000047800b1
:1033940040012000a9f80700a0e88000880f500031
:1033a400fbff3a0040012000a4f807000000eb00f6
:1033b400a0e8880010079800180020005905200094
:1033c400c0e880008001eb00030178008b007800e6
:1033d400d6fb0700e10f50000100320058e88800d6
:1033e400c0e880008001eb00030178008e007800c3
:1033f40066fb0700e10f50000100320058e8880026
:10340400a0e88000890f500001003a0058e88800c5
:10341400b0e88000510020003df70700a0e88000dc
:10342400890f500001003a0058e88800b0e8800095
:103434002100200036f707001e0090000000e8007d
:1034440010079800e40f5000ddff3400a1e880006d
:1034540050052000808f50000600320000047800e0
:103464004001200075f80700a0e88000880f500094
:10347400fbff3a004001200070f807000e3dec000d
:1034840019ff37000200fa00889fbe008a9fbe0021
:103494008005eb00590520001a0020000000eb0015
:1034a4005bf70700b7f80700000478000b0f7800fb
:1034b400a9e88800c0e880008b017800f20a2000a7
:1034c4008e00780099fb07000000e0000100320044
:1034d4005ae88800abf8070088005000e00a200092
:1034e400808f500003003600e00b2000808f5000d6
:1034f400010036005ae88800a9e888000000eb00c3
:1035040043f707009ff8070000047800a9e8880043
:10351400c0e880008001eb00f20a20008e007800f1
:103524001afb07000000e000010032005ae888009e
:1035340094f8070088005000e00a2000808f5000b3
:1035440003003600e00b2000808f5000010036009d
:103554005ae88800a9e888000c3dec00cfff37004a
:103564000000fa0071e880000041eb0090e8800060
:10357400808f500001003a0012c0b300024078006e
:103584000004a2000081fb0061e8800080e8800064
:10359400808f500001003a000001eb0050e88000e9
:1035a400e10f500001003a000001eb0060e88000e8
:1035b40080e8880070e8800090e8880002007800c5
:1035c4000080fa00000006000000fa00889fbe0098
:1035d4000001780081047800f0e8800000044100d4
:1035e400229dec000e06070010e9800018009800e8
:1035f400f0e88000800f54000500310011e98000dc
:103604008180e80080e58000ed05070004003700b4
:1036140011e980008180e80090e58000e80507005a
:103624000900e0000400320011e98000ec80400051
:1036340009007800e20507004f04be000080fa008c
:10364400000006000000fa00881f7800a61ce200b3
:103654001a00320042a0a80030e580000000e0001b
:1036640002003a00000478000200370060e58000a0
:10367400300490006c004400e905070042a0a90052
:103684000880e800e6050700b808900000e980001b
:10369400808f50000100360001e988008880e8002e
:1036a400380990006a11b90080cc21000200400062
:1036b400b5050700a61ce200e6ff3a004f047800b7
:1036c4000080fa00000006000000fa00881f78005d
:1036d4002cf80700e1e8800001005000d0e88800e1
:1036e4002e003700f1e880008100e800f1e888004e
:1036f4000000e900d0e888000100e00004003a007e
:1037040090e5800082e5800092e5880080e58800ed
:1037140090e580001000e00028003a001f00370008
:1037240098009000f0e88000808f50001b003e005d
:1037340042a0a8000880e800b90507002808900006
:103744000000e000020032006c004400b4050700f1
:1037540042a0a900b808900000e98000808f5000c2
:103764000100360001e988008880e80038099000eb
:103774006a11b90080cc21000200400082050700d4
:1037840090e580001000e00004003200300090005a
:10379400300490000800e000e1ff3a00d0e8800027
:1037a4000000e000cfff3a00f0e88000e0e8880085
:1037b4004f0478000080fa000000060030009000fa
:1037c400300490000800e000f4ff3200180090007c
:1037d400808f5000f1ff3900d5ff37000000fa0058
:1037e40098ff0700b8ff070004e980006a20b900c9
:1037f40082cc2100800041001100e0001900320059
:10380400090037000201e8006a005000840f5100eb
:103814001c0032008301e90003e98800800078007d
:103824001000e000f7ff320011009000100190003a
:103834009200980064804000800f510002003a001a
:103844001201900092009800110090003000900046
:1038540010e9880010017800c008900002000100ff
:10386400080037000400e000060032006a20b900b6
:10387400e2cb210000004100840178000001eb004c
:10388400e4ff37000080fa00000006000000fa00a0
:10389400889fbe0088cc2100c9cd21000800780093
:1038a4002b0507006a044400888f5400fbff3a008c
:1038b400e0cb21002605070040cb210024050700aa
:1038c40060ca210022050700e0cb210090e58800b2
:1038d40040cb210080e588004f04be000080fa0040
:1038e400000006000000fa00889fbe008a9fbe0008
:1038f4008c1f7800800578000104780002057800a8
:10390400c001200041060700800478000080eb001d
:103914000900e00024003200221de20002003a0007
:1039240019e98800d9ff0700e10f540003003600ad
:10393400180020003c002000010037006406140039
:103944000000eb00d00c9800b80c9800ca0c98004a
:10395400090578000b1d78000a00780005050700aa
:103964006c8444000800780002050700c90498002c
:10397400990c98000c0c7800b908900000e98000bc
:10398400808f50000100360001e988003909900059
:103994006a11b90080cc2100020040008a0078003e
:1039a400f9040700100020004f0678004f05be0000
:1039b4004f04be000080fa00000006000000fa0078
:1039c400889fbe00900078000100e00002003a00e9
:1039d400810478000200370030009000b0049000a9
:1039e4006c844400080078000d0507008800780006
:1039f40060ca2100e4040700b908900010e98000bf
:103a0400300890000001eb00808f50000100390065
:103a140012002000020078004f04be000080fa006b
:103a2400000006000000fa00881f78008a9fbe008c
:103a34000005be0002047800c922a800cb02a80039
:103a44003000200040368800900020002035880097
:103a54001100200002007800bbf80700b0e98800dc
:103a64001100200008007800b7f80700a0e98800da
:103a74002062a9002002a90090cfb3002062b60002
:103a840020a2a90020c2a90020e2a900c0cfb3004f
:103a94002162b6002182a90021a2a90021e2a80086
:103aa400e00f5500e08f5d00030035000a00be0002
:103ab400acf3070009003700610065000100200035
:103ac4008b01d1000a81d300020070008380700052
:103ad400a4f307000001be0009f307000200200060
:103ae40003182400d1f207000001be000068290079
:103af40081c12400d5f307000200200003f0230055
:103b0400fef207005bf3070040118800f0c3b30026
:103b14002262b6002342a80023c2a90023a2a9005e
:103b240023e2a90042a0a8008560a9008580a9001d
:103b3400a9c0bf00f1c8b300014060000044a00068
:103b4400a9e0b700aac0bf0081cfb3000140600064
:103b54000004a000aae0b7009580a8009560a80022
:103b640022c2bf000008a30004003200301180000c
:103b740022c2bf000008a300fcff3a00100020008e
:103b840090e988000000eb004f05be004f04780068
:103b94000080fa00000006000000fa00b0e980008e
:103ba4008001eb0079f90700800078000000ea004a
:103bb400010070004f00de000080fa0000000600e3
:103bc4000200fa00014f7800a0e980008001eb00b8
:103bd4008e007800d5f907008000eb00e10f50005b
:103be40006003a0011002000321de20003003200fa
:103bf400323def008580a80011002000010078000c
:103c04000080fa00000006000000fa000080fa00bc
:103c1400000006003600f800809fbe00829fbe00b0
:103c2400849fbe00869fbe00881f78003400f80081
:103c340000002000a00188000400fa000000eb004e
:103c4400100798008560a90022c2bf000008a300e5
:103c54000b0032000e04780030118000004f780011
:103c6400b0e980008001eb000e81e8008800780054
:103c7400b3f8070022c2bf000008a300f6ff3a0011
:103c84001e0090000000e00003003200b82702008c
:103c940000000000000000000080fa003400f90079
:103ca4004f0478004f03be004f02be004f01be0018
:103cb4004f00be003600f900004006003600f80050
:103cc400809fbe00829fbe00849fbe00869fbe0070
:103cd4003400f80000002000a00188000400fa006d
:103ce4000000eb00100798008580a90023c2bf00e4
:103cf4000018a300fdff3a00a0e980000e81e8004f
:103d04008e007800c8f80700e10f500003003a0065
:103d14001e00fb0020118800f4ff37001000200073
:103d240090e988001e0090000000e00003003200cb
:103d3400b827020000000000000000000080fa0024
:103d44003400f9004f03be004f02be004f01be0015
:103d54004f00be003600f900004006000000fa00e3
:103d6400889fbe00800478000104780091407800a8
:103d74000104e000060032000001eb0009007800b5
:103d84008fff0700d84078000104e000faff3a00f2
:103d94004f04be000080fa00000006000000fa0094
:103da400889fbe008a9fbe008c1f780000067800a2
:103db4006000200015050700800478002100200021
:103dc40010002000e0f70700800c78008b3e2000f4
:103dd4009b04980020ce2100a004980060002000dd
:103de4000a05070000057800190878000004eb00b4
:103df40018009800c0cd2100200598008003eb0036
:103e040008037800880278000c02780089017800a1
:103e140092062000a181280080fe210060f707009f
:103e24008003eb0008037800880278000802780019
:103e34008a0178009206200021822800a0fb21003c
:103e440057f7070060002000f004070080047800a2
:103e54002100200010002000bbf70700800c780030
:103e640098049800e0cd2100a00498006000200090
:103e7400e604070000057800190878001b00980084
:103e840040ce2100200598008003eb000803780051
:103e940088027800080278008901780092062000e0
:103ea400a182280080fe21003df707008003eb007b
:103eb40008037800880278000c0278008a017800f0
:103ec4009206200021832800a0fb210034f707007c
:103ed40060002000cd040700800478002100200049
:103ee4005000200098f70700800c78009b0498008d
:103ef40000ce2100a004980060002000c304070045
:103f040000057800190878001b00980060ce210095
:103f1400200598008003eb000803780088027800ed
:103f2400080278008901780092062000a183280005
:103f3400a0fb21001af707008003eb0008037800b8
:103f440088027800080278008a017800920620002e
:103f54002184280080fe210011f707004f06780015
:103f64004f05be004f04be000080fa0000000600aa
:103f74000200fa00889fbe008a1f78008000eb00d0
:103f8400010f7800000478000e05780081047800a1
:103f94000100370019002000180190001800780073
:103fa4008001eb008a007800e0f80700e10f500080
:103fb400f8ff3a000900e00002003a0028009000ef
:103fc4001008e8001e0fe800f3ff37000200fa00b3
:103fd400889fbe008a1f7800000478008004eb00ec
:103fe4000905780002003700800478001a002000d8
:103ff40018019000180078008001eb008e00780012
:1040040062f80700e10f5000f9ff3a001e00780043
:10401400808f5400f4ff3a000a00e00002003a00e6
:10402400280090001008e8008904e800f0ff370039
:104034000000fa00170020008000eb00e4ce21000d
:1040440083ce210026ce2100c5cd21000180400071
:1040540060007b0004017800940f500001003a00d6
:104064008003eb000180400060097b0060807a00df
:1040740003017800930f500001003a008003eb0025
:104084000180400060897a008100e8000482e80031
:104094008381e800e38f5000ecff3a0007007800ca
:1040a4000080fa00000006000000fa000000e000b2
:1040b400270034008000eb00000000000000000036
:1040c40000000000000000000000000000000000ec
:1040d40000000000000000000000000000000000dc
:1040e40000000000000000000000000000000000cc
:1040f40000000000000000000000000000000000bc
:1041040000000000000000000000000000000000ab
:10411400000000000000000000000000000000009b
:10412400000000000000000000000000000000008b
:10413400000000000000000000000000000000007b
:10414400000000008100e800810f5000daff3a000f
:104154000080fa00000006000000fa00889fbe00fc
:10416400800478000000e000060034000004eb0046
:10417400803e2000ccff07000804e800888f54002c
:10418400fbff3a004f04be000080fa000000060066
:104194000000fa00881f7800000478005000200016
:1041a400c1ff070050168000f1ff200001006000ed
:1041b400cc40dd0001007000501688005000200043
:1041c400b9ff0700cc82a80020032000b6ff070037
:1041d400cc82a9004f0478000080fa000000060099
:1041e4000000fa00881f7800000478004480de0094
:1041f400e7ff07006f04640008007800e4ff07008d
:1042040030002000d4ff07004f0478000080fa003b
:10421400000006000000fa00881f780000047800ff
:10422400ccc2a800500020009fff070008007800bf
:10423400ebff0700500020009bff0700ccc2a90041
:1042440010002000c4ff07004f0478000080fa002b
:10425400000006000000fa00889fbe008a9fbe008e
:1042640080057800000578008004eb000400370026
:1042740068c07d000000fb00e6ff07008904e80039
:10428400090478000a007800e1f00700890f500063
:10429400f7ff3e004f05be004f04be000080fa0049
:1042a400000006000000fa0010002000ccff070008
:1042b4000080fa00000006000000fa000101780006
:1042c40001fc2f00e20f50000d00320003003c00ff
:1042d400e10f500007003a000800370041f92f00b1
:1042e400e30f50000600320041fd2f00e40f5000a0
:1042f400030032008000eb000100370001f82f00ba
:10430400010041000000e900b5ff07000080fa0049
:10431400000006000000fa0011002000e6ff07007c
:104324000080fa00000006000000fa00ca22ef0034
:104334002003200088ff07004001200086ff0700bb
:104344003000200092ff07004001200082ff070098
:10435400300020008eff0700400120007eff070090
:10436400300020008aff0700400120007aff070088
:104374002000200086ff0700a000200076ff070031
:104384008002200096ff07008000200094ff0700b1
:10439400c4ff07006000200091ff0700c000200058
:1043a4008fff0700500020006bff07000080fa0019
:1043b400000006000000fa00889fbe008004780018
:1043c400e80f500001003600890020002100200081
:1043d400100020005cf6070010ea88000000e000ee
:1043e4000e003a00100037000004eb0008017800ca
:1043f4008000eb00c02122003afd07000804e80019
:10440400888f5400f9ff3a000001eb0011002000ee
:104414004028220033fd0700030037000900e000b4
:10442400f9ff3200f0ff37004f04be000080fa00ad
:10443400000006000200fa00881f7800010f7800cf
:1044440000047800d008900000102000808f5000f5
:104454001300320003003e000100e00007003200b8
:104464002500370010102000808f50001800320003
:1044740073004000808f50001f003a0010ea800053
:104484000001eb008e00780014f80700e40f4000f0
:1044940007003a0000102000500c98001600370066
:1044a40010ea80000001eb008e0078000bf8070092
:1044b400e50f400003003a0010102000500c980053
:1044c4000d003700e10f500001003200403def00c5
:1044d4001e00780000004000a1842800608078005d
:1044e4000000e000020032008000eb0036fc070010
:1044f40040112000500c98004f0478000080fa000e
:10450400000006000200fa00881f7800000478000a
:10451400d008900000142000808f50000e0032005c
:104524000000e800808f5000180032000100e00015
:1045340019003a0010ea80000081eb008e00780038
:1045440016f80700e40f400007003a0000142000aa
:10455400500c98001000370010ea80000001eb00b6
:104564008e0078000df80700e50f400003003a00c4
:1045740010142000500c980007003700e10f500081
:1045840002003200403def00eaff37001e007800d1
:10459400d7020700e7ff37004f0478000080fa00d5
:1045a400000006000000fa0000ea80000080fa0023
:1045b400000006000000fa00ca42a900c842a9008f
:1045c4000080fa00000006000000fa00c842a800bb
:1045d4000080fa00000006000000fa00c842a900aa
:1045e400614060004200dd00a12c20009140780071
:1045f4000124a10080c0700001007800cae2b70065
:104604000080fa00000006000000fa00cac2bf00e1
:104614004200de00610060000080fa000000060035
:104624000000fa00e8ff0700e2ff07006022200014
:104634009dfe0700e4ff0700600420009afe0700c7
:10464400401f200098fe0700dfff07000080fa00eb
:10465400000006000000fa00889fbe0000047800f5
:104664008004eb00d3ff0700200020008efe07002b
:1046740061006400d8ff07000884d100c003200053
:1046840089fe0700d0ff07002000200086fe0700f7
:104694008904e800e88f5400f2ff3a004f04be009a
:1046a4000080fa00000006000000fa00889fbe00a7
:1046b4000004eb0089002000beff0700200020005a
:1046c40079fe0700c0ff07008000200076fe070087
:1046d4000884d100ccff07004700dd00000474000b
:1046e4008007200070fe07008904e900f2ff3a0009
:1046f400080078004f04be000080fa0000000600a5
:104704000000fa00889fbe00c5ff0700c00c20000f
:10471400d0ff070040042000ceff0700e2ff07009f
:104724000000e000fdff3200bdff0700c00c2000c8
:10473400c8ff0700e00b2000c6ff0700daff0700f0
:1047440080047800d8ff070000047800d6ff070033
:10475400d5ff0700d4ff0700d3ff0700d2ff0700ef
:10476400d1ff07004840dd0000804400cf80de0018
:104774007cf007000200200003d82300abef070001
:104784004f04be000080fa00000006000000fa009a
:10479400881f7800000478000202be0071e98800d6
:1047a400820120000400be009efc07008003eb0091
:1047b4000003eb00860278000802e9008601780015
:1047c400920620008186280020402200f4f407008d
:1047d4008003eb000003eb008602780008027800f7
:1047e4008601780092062000e1862800e04322003a
:1047f400ebf407004f0478000080fa000000060084
:104804000000fa00889fbe0099c5b30018c4b30025
:1048140080e980000001eb0088407800e8fc070094
:10482400e10f500002003a0070e9800030020700f6
:104834000844e800894f5400f5ff3a0070e980000d
:104844008000eb0011020700cef307006300400074
:1048540062092000110009000280d8001003200022
:10486400808f500001003e002103200001007800e9
:1048740072f30700e5ff37000200fa00889fbe00cc
:104884008a9fbe008c1f78000005eb000a067800a2
:1048940099c5b3008bc5b30018c4b30080e9800088
:1048a4000081eb008e007800bbfc07000000e000f4
:1048b400040032009e4f14000b003a002e1dec0041
:1048c4000b0207000844e800894f5400f3ff3a0044
:1048d4002e1dec008000eb00ec010700e10f5500f9
:1048e4000c003a00060037001a002000f8ff3700d9
:1048f40080e980000081eb008e007800a6fc0700b0
:104904009ecf1500faff3a000c06e8000005eb0004
:10491400e1ff3700e10f5600dfff3c002c3dec00c7
:10492400ddff37000000fa0061e980000000eb00c1
:1049340060e988000100e00001003a0010c0b30003
:104944000004a2000080fb000080fa0000000600c2
:104954000000fa00010878008000eb0011009800c4
:104964002100980032009800e8004000407e2800b2
:10497400a2812800b0187800800f5100fdff3a0092
:10498400200280008008780034c0bf000080fb0053
:10499400900098000000eb00a000980066804000a2
:1049a4000080fa00000006000000fa000000eb009e
:1049b400200888000008880080382100100888003a
:1049c400a5c0bf00f1c8b300014060000044a000ce
:1049d400a5e0b7008460a9009460a8000481a80041
:1049e40004a1a90005e1a80040e880009007780030
:1049f4004f007800f0e988003400f9004400f90021
:104a04004000f9003e00f9003c00f9003a00f900ca
:104a14003800f9002c00f9002a00f9002800f900f8
:104a24002600f9002400f9002200f9003200f90000
:104a34003600f9004f0778004f06be004f05be0050
:104a44004f04be004f03be004f02be004f01be0024
:104a54004f00be004200f9000000060010002000d4
:104a64000080fa00000006000000fa000080fa004e
:104a7400000006000000fa0042a0a8003e3dec0041
:104a84000080fa00000006000000fa003e1ded0060
:104a9400f0e9880001003a0042a0a9000080fa0071
:104aa400000006003600f800809fbe00829fbe0012
:104ab400849fbe00869fbe003400f80000002000e2
:104ac400a00188000000fa008460a9005bf20700de
:104ad4000080fa003400f9004f03be004f02be000c
:104ae4004f01be004f00be003600f9000040060032
:104af400881f7800801f78000001eb000200e600a8
:104b04000000ea000002eb00530020000004eb0068
:104b14000e0008001900000000f0a70061027200f6
:104b24006f03620003b0e600630242004419dd0033
:104b3400050f20000503620002b0e6000403b00084
:104b44004411dd00c42add000503620002b0e60062
:104b54000430b00007002300c42add00050362000e
:104b64004c33de0003b0e600070242004100dd00e2
:104b74004f21de004144dd00020474004122dd00c7
:104b840000f0a700610272004f0078008002eb0081
:104b94008001eb0003c0e7000500370003a0e70035
:104ba4000300370002032000825878001d003700fc
:104bb4000003eb00d30220000600e60083587800cf
:104bc4006f0164000610e700030037000203b00021
:104bd40082587800150020000003eb000300080051
:104be4000f00000002002f0082016200cc19de00d9
:104bf4000618e70004003700030178000203b00040
:104c040082587800150020006128e10004003a0071
:104c14000698e7000200370002032000825878005b
:104c24004422dd008001eb00834878004f047800c3
:044c34000000060076
:020000040000fa
:104c38003c1d00000200000002000000010000000e
:104c4800241d00000800000000000000f41c000003
:104c58001600000002000000000000000000000034
:104c6800000000000000000000000000000000003c
:104c78000000000000000000521c0000540000006a
:104c8800000000003e1d00000200000002000000bd
:104c9800ef000000500800000214000000000000af
:104ca800dc1c000018000000000000001a1d0000b5
:104cb8000a000000020000000000000000000000e0
:104cc8000000000000000000a61c000036000000e4
:104cd80000000000401d000002000000020000006b
:104ce80001000000421d000002000000000000005a
:104cf800441d000002000000000000000a1d000022
:104d08001000000000000000461d00000200000026
:104d180000000000481d0000020000000200000022
:104d280000000000381d0000040000000000000022
:104d38002c1d00000600000000000000321d0000cd
:0c4d480006000000000000000000000059
:020000040000fa
:104d54000000fa00e4004000110098008088eb0095
:104d640031009800410098000008eb000080fa0030
:104d7400000006000000fa008000eb0041009800eb
:104d84000080fa00000006000000fa009001900084
:104d9400130190009200980010019000a200980066
:104da40013019000210198009101980011009800ce
:104db400c00098001008e8000080fa000000060017
:104dc4000000fa000002780091017800e18f4100b0
:104dd40002003a00400190000800370064014000de
:104de40012009000908f51000400390012019000cd
:104df40012009000908f5100fcff310012009000cf
:104e04009000980021009800a200980011019800d9
:104e1400c4009800140ae8000080fa0000000600ac
:104e24000000fa008000780010009000210190003a
:104e340022009800a1019000900198004101900087
:104e440012009000810f500001003a0013019800f5
:104e54000000eb00c00098001209e9000080fa008d
:104e6400000006000000fa008003eb000003eb00e2
:104e7400860278000002780063d4210092062000a4
:104e840041872800c074220045f307000080fa001f
:104e9400000006000400fa00889fbe008004780029
:104ea4000004eb00b007200001002000008fbe00ca
:104eb40070442900310020001e0f40005e97480016
:104ec400b827020000000000000000001e02be001f
:104ed400d0ff2f000021b8000483510000a8b900be
:104ee40080014300028fbe001e00be00720020003d
:104ef40003002000c6ee0700008fbe00b07127003b
:104f0400e1ff2f00be0f1000ae8f18000200320028
:104f140018002000060037000800e00004003a00f2
:104f2400d4fe070010002000800c7800d6fe070095
:104f3400b82702000000000000000000d9ff37007d
:104f44000000fa0031ea80000000eb0030ea88003b
:104f54000100e00001003a0010c0b3000004a20008
:104f64000080fb000080fa00000006004200f80008
:104f7400801f78000002200010028800811f780042
:104f8400829fbe00849fbe00869fbe00889fbe0095
:104f94008a9fbe008c9fbe008e1f78003600f800ea
:104fa4003200f8002200f8002400f8002600f8007f
:104fb4002800f8002a00f8002c00f8003800f80057
:104fc4003a00f8003c00f8003e00f8004000f80009
:104fd4004400f8003400f800f0e98000801f7800f5
:104fe40040e880000f087800de0b0200000000009b
:104ff40040e88000900778004f007800f0e98800ce
:105004003400f9004400f9004000f9003e00f900c2
:105014003c00f9003a00f9003800f9002c00f900ce
:105024002a00f9002800f9002600f9002400f900fc
:105034002200f9003200f9003600f9004f07780029
:105044004f06be004f05be004f04be004f03be0016
:105054004f02be004f01be004f00be004200f900e7
:10506400000006000000fa008000eb004103880005
:105074005103880040002000401688005116880023
:1050840021ea88000080fa00000006000000fa000f
:10509400881f7800120020000014dd000100e000e9
:1050a4000700320073fe070008007800441db700b3
:1050b40020ea88005016880073fe070009003700b4
:1050c4006cfe0700080078000080ea008180ea0096
:1050d40022ea80000001610022ea8800521688005a
:1050e40069fe07004f0478000080fa000000060003
:1050f4000000fa00881f780011002000000cdd0079
:105104005cfe070022ea800002006400070032000f
:10511400080078000080ea008180ea000000610055
:1051240020ea88005016880003003700020074004b
:1051340020ea88005016880053fe07004f047800c8
:105144000080fa00000006000000fa008000eb0076
:1051540081088800f108880031088800a1088800c7
:105164006101b80000a025002126200079ee070087
:10517400600888001aa1ef00a7c0bf00f1c8b300ff
:10518400014060000054a000a7e0b70084e0a9003b
:1051940094e0a80011e1a8001fe1a8000080fa0033
:1051a40000000600809fbe00821f78003400f800d3
:1051b40000002000a00188000000fa00a20880007e
:1051c400c0e98000e40f500007003600d0e98000f9
:1051d4008000510040ea8000808f500004003600b7
:1051e40041ea8800020037000000e800c0e98800b6
:1051f400d2e9880084e0a9000080fa003400f900b4
:105204004f0178004f00be00004006000000fa0085
:10521400881f7800000478000008a3000200320010
:105224000000a1000084e800b5ef0700824280007e
:1052340082004400f03f2100808f500006003e00b1
:10524400810f51000400310020852000000441003a
:1052540081428800010037000004eb00b4f007002d
:10526400080078004f0478000080fa00000006006f
:105274000000fa000080fa00000006000000fa00b6
:105284005028ef000080fa00000006000000fa0039
:105294000040210081428000010050000080fa009b
:1052a400000006000000fa002143a800c1cfb300ab
:1052b400014078002163b60020c3bf007f40600036
:1052c4000064a00020e3b7002043a8002343a80003
:1052d400014078002363b60030ccb3002263b600eb
:1052e40025e3a900f0c3b30024e3b70030a3a8006a
:1052f4002ca3ef002ca3a90085a0a90095a0a800c9
:1053040021e3a8000080fa00000006000000fa0073
:105314000a21ef00703821007008880013e1a8000a
:105324000080fa00000006000000fa0085a0a90031
:085334000080fa0000400600b1
:020000040000fa
:04533c000000fe006f
:00000001FF
